:02000000642971
:0E0006008312031327088A00260882000800D0
:100014007B14FB1F1528F201FA1FFF30F200F100D8
:0A002400F000FA0DF20CFF300800A6
:10002E0083120313FB01FA01F9018030F800F10C81
:10003E00F00C031C2B287408F90775080318750FAC
:10004E00FA070318FB0A0310F01F33287408FA0787
:10005E0075080318750FFB07FB0CFA0CF90CF80C5E
:10006E00031C1E287B08F3007A08F2007908F100C1
:06007E007808F000080004
:10008400831603130711831212150C30970408000A
:1000940003208A110A128000840AA60A0319A70AF7
:0800A400F003031D4A280800C7
:0C00AC00831203139B011D129D1208001B
:1000B800831603131208013EF000F1010318F10A38
:1000C80083122808F400F50117200630F2007008A2
:1000D800F4007108F500720803197728F50CF40C80
:1000E800F513FF3E70280430F1007408F000710821
:1000F80003198228F00D7010FF3E7C288312031329
:1001080030307005F3007408F0007508F100F10C48
:10011800F00CF113F10CF00CF11370089B000F3088
:080128009D0573089D04080009
:0C013000831203139501171297120800A8
:10013C000030831203132906031DA628003028065D
:10014C00031DB428053085000330FC009730FD00FA
:10015C00FD0BAE28FC0BAE28000000000030290679
:10016C00031DBA2801302806031DC828013085005C
:10017C000330FC009730FD00FD0BC228FC0BC2289D
:10018C000000000000302906031DCE28023028068E
:10019C00031DDC28043085000330FC009730FD0083
:0E01AC00FD0BD628FC0BD62800000000080032
:1001BA0083120313FB01FC01FA01730803190A29CC
:1001CA00FA13F2178630F302F31BEE280319EE280E
:1001DA000C29F309F30A08307302031CFB28F30005
:1001EA00F20DF2017308031D0310022973080319A3
:1001FA0002290310F20CF30BFE287B1B721C0A293E
:10020A00031C0A29F20A03191129F10114297B1482
:10021A00FB1F1729F10117290130FC0019290030A9
:10022A00FC001929FF30FC00FC0803191D290A20CB
:06023A007208F00008004C
:10024000831603138710831212150C309D040800C7
:10025000831603131208013EF000F1010318F10A9E
:1002600083122808F400F50117200630F200700808
:10027000F4007108F500720803194329F50CF40C19
:10028000F513FF3E3C290430F1007408F0007108BA
:1002900003194E29F00D7010FF3E482983120313F5
:1002A00030307005F3007408F0007508F100F10CAF
:1002B000F00CF113F10CF00CF113700895000F30F5
:0802C00097057308970408007C
:1002C80083120313A001A1014830A2008630A300C5
:1002D80083168501081788178710071183121214CF
:1002E8009210633083169200982012149210633093
:1002F800831692005620422020212008F000210871
:10030800F1002208F2002308F300DD207008A8009D
:1003180028212008F0002108F1002208F200230813
:10032800F300DD207008A8005C20881FA329081F9F
:10033800A329A801A9019E20A401A501C729881FF6
:10034800B129081BB1290130A8000030A9009E205E
:100358000130A4000030A500C729881BBF29081F49
:10036800BF290230A8000030A9009E200230A40056
:100378000030A500C7298813881FC7292408A800AA
:0A0388002508A9009E209929C82924
:02400E004A2F37
:00000001FF
